{
  "contractName": "Voter",
  "abi": [
    {
      "inputs": [
        {
          "internalType": "string[]",
          "name": "_options",
          "type": "string[]"
        }
      ],
      "payable": false,
      "stateMutability": "nonpayable",
      "type": "constructor"
    },
    {
      "constant": true,
      "inputs": [
        {
          "internalType": "uint256",
          "name": "",
          "type": "uint256"
        }
      ],
      "name": "options",
      "outputs": [
        {
          "internalType": "string",
          "name": "",
          "type": "string"
        }
      ],
      "payable": false,
      "stateMutability": "view",
      "type": "function"
    },
    {
      "constant": true,
      "inputs": [
        {
          "internalType": "uint256",
          "name": "",
          "type": "uint256"
        }
      ],
      "name": "votes",
      "outputs": [
        {
          "internalType": "uint256",
          "name": "",
          "type": "uint256"
        }
      ],
      "payable": false,
      "stateMutability": "view",
      "type": "function"
    },
    {
      "constant": false,
      "inputs": [
        {
          "internalType": "uint256",
          "name": "option",
          "type": "uint256"
        }
      ],
      "name": "vote",
      "outputs": [],
      "payable": false,
      "stateMutability": "nonpayable",
      "type": "function"
    },
    {
      "constant": false,
      "inputs": [
        {
          "internalType": "string",
          "name": "optionName",
          "type": "string"
        }
      ],
      "name": "vote",
      "outputs": [],
      "payable": false,
      "stateMutability": "nonpayable",
      "type": "function"
    },
    {
      "constant": true,
      "inputs": [],
      "name": "getOptions",
      "outputs": [
        {
          "internalType": "string[]",
          "name": "",
          "type": "string[]"
        }
      ],
      "payable": false,
      "stateMutability": "view",
      "type": "function"
    },
    {
      "constant": true,
      "inputs": [],
      "name": "getVotes",
      "outputs": [
        {
          "internalType": "uint256[]",
          "name": "",
          "type": "uint256[]"
        }
      ],
      "payable": false,
      "stateMutability": "view",
      "type": "function"
    }
  ],
  "bytecode": "0x60806040523480156200001157600080fd5b50604051620012873803806200128783398181016040526200003791908101906200045b565b80600190805190602001906200004f929190620001d3565b5060008090505b600180549050811015620001cb576200006e6200023a565b60405180604001604052808381526020016001151581525090506060600183815481106200009857fe5b906000526020600020018054600181600116156101000203166002900480601f0160208091040260200160405190810160405280929190818152602001828054600181600116156101000203166002900480156200013a5780601f106200010e576101008083540402835291602001916200013a565b820191906000526020600020905b8154815290600101906020018083116200011c57829003601f168201915b5050505050905081600382604051620001549190620004d7565b90815260200160405180910390206000820151816000015560208201518160010160006101000a81548160ff02191690831515021790555090505060008090806001815401808255809150509060018203906000526020600020016000909192909190915055505050808060010191505062000056565b5050620005c0565b82805482825590600052602060002090810192821562000227579160200282015b82811115620002265782518290805190602001906200021592919062000256565b5091602001919060010190620001f4565b5b509050620002369190620002dd565b5090565b6040518060400160405280600081526020016000151581525090565b828054600181600116156101000203166002900490600052602060002090601f016020900481019282601f106200029957805160ff1916838001178555620002ca565b82800160010185558215620002ca579182015b82811115620002c9578251825591602001919060010190620002ac565b5b509050620002d991906200030e565b5090565b6200030b91905b80821115620003075760008181620002fd919062000336565b50600101620002e4565b5090565b90565b6200033391905b808211156200032f57600081600090555060010162000315565b5090565b90565b50805460018160011615610100020316600290046000825580601f106200035e57506200037f565b601f0160209004906000526020600020908101906200037e91906200030e565b5b50565b600082601f8301126200039457600080fd5b8151620003ab620003a5826200051e565b620004f0565b9150818183526020840193506020810190508360005b83811015620003f55781518601620003da8882620003ff565b845260208401935060208301925050600181019050620003c1565b5050505092915050565b600082601f8301126200041157600080fd5b815162000428620004228262000547565b620004f0565b915080825260208301602083018583830111156200044557600080fd5b620004528382846200058a565b50505092915050565b6000602082840312156200046e57600080fd5b600082015167ffffffffffffffff8111156200048957600080fd5b620004978482850162000382565b91505092915050565b6000620004ad8262000574565b620004b981856200057f565b9350620004cb8185602086016200058a565b80840191505092915050565b6000620004e58284620004a0565b915081905092915050565b6000604051905081810181811067ffffffffffffffff821117156200051457600080fd5b8060405250919050565b600067ffffffffffffffff8211156200053657600080fd5b602082029050602081019050919050565b600067ffffffffffffffff8211156200055f57600080fd5b601f19601f8301169050602081019050919050565b600081519050919050565b600081905092915050565b60005b83811015620005aa5780820151818401526020810190506200058d565b83811115620005ba576000848401525b50505050565b610cb780620005d06000396000f3fe608060405234801561001057600080fd5b50600436106100625760003560e01c80630121b93f146100675780630dc9601514610083578063409e2205146100a15780635df81330146100d1578063cc2ee19614610101578063fc36e15b1461011f575b600080fd5b610081600480360361007c9190810190610751565b61013b565b005b61008b6102ad565b6040516100989190610a33565b60405180910390f35b6100bb60048036036100b69190810190610751565b610305565b6040516100c89190610a55565b60405180910390f35b6100eb60048036036100e69190810190610751565b6103be565b6040516100f89190610ad7565b60405180910390f35b6101096103df565b6040516101169190610a11565b60405180910390f35b61013960048036036101349190810190610710565b6104c8565b005b80600011158015610150575060018054905081105b61018f576040517f08c379a000000000000000000000000000000000000000000000000000000000815260040161018690610a77565b60405180910390fd5b600260003373ffffffffffffffffffffffffffffffffffffffff1673ffffffffffffffffffffffffffffffffffffffff16815260200190815260200160002060009054906101000a900460ff161561021c576040517f08c379a000000000000000000000000000000000000000000000000000000000815260040161021390610a97565b60405180910390fd5b60016000828154811061022b57fe5b9060005260206000200154016000828154811061024457fe5b90600052602060002001819055506001600260003373ffffffffffffffffffffffffffffffffffffffff1673ffffffffffffffffffffffffffffffffffffffff16815260200190815260200160002060006101000a81548160ff02191690831515021790555050565b606060008054806020026020016040519081016040528092919081815260200182805480156102fb57602002820191906000526020600020905b8154815260200190600101908083116102e7575b5050505050905090565b6001818154811061031257fe5b906000526020600020016000915090508054600181600116156101000203166002900480601f0160208091040260200160405190810160405280929190818152602001828054600181600116156101000203166002900480156103b65780601f1061038b576101008083540402835291602001916103b6565b820191906000526020600020905b81548152906001019060200180831161039957829003601f168201915b505050505081565b600081815481106103cb57fe5b906000526020600020016000915090505481565b60606001805480602002602001604051908101604052809291908181526020016000905b828210156104bf578382906000526020600020018054600181600116156101000203166002900480601f0160208091040260200160405190810160405280929190818152602001828054600181600116156101000203166002900480156104ab5780601f10610480576101008083540402835291602001916104ab565b820191906000526020600020905b81548152906001019060200180831161048e57829003601f168201915b505050505081526020019060010190610403565b50505050905090565b600260003373ffffffffffffffffffffffffffffffffffffffff1673ffffffffffffffffffffffffffffffffffffffff16815260200190815260200160002060009054906101000a900460ff1615610555576040517f08c379a000000000000000000000000000000000000000000000000000000000815260040161054c90610a97565b60405180910390fd5b61055d61068b565b60038260405161056d91906109fa565b9081526020016040518091039020604051806040016040529081600082015481526020016001820160009054906101000a900460ff161515151581525050905080602001516105f1576040517f08c379a00000000000000000000000000000000000000000000000000000000081526004016105e890610ab7565b60405180910390fd5b6001600082600001518154811061060457fe5b906000526020600020015401600082600001518154811061062157fe5b90600052602060002001819055506001600260003373ffffffffffffffffffffffffffffffffffffffff1673ffffffffffffffffffffffffffffffffffffffff16815260200190815260200160002060006101000a81548160ff0219169083151502179055505050565b6040518060400160405280600081526020016000151581525090565b600082601f8301126106b857600080fd5b81356106cb6106c682610b1f565b610af2565b915080825260208301602083018583830111156106e757600080fd5b6106f2838284610c0a565b50505092915050565b60008135905061070a81610c5d565b92915050565b60006020828403121561072257600080fd5b600082013567ffffffffffffffff81111561073c57600080fd5b610748848285016106a7565b91505092915050565b60006020828403121561076357600080fd5b6000610771848285016106fb565b91505092915050565b600061078683836108aa565b905092915050565b600061079a83836109dc565b60208301905092915050565b60006107b182610b6b565b6107bb8185610bb1565b9350836020820285016107cd85610b4b565b8060005b8581101561080957848403895281516107ea858261077a565b94506107f583610b97565b925060208a019950506001810190506107d1565b50829750879550505050505092915050565b600061082682610b76565b6108308185610bc2565b935061083b83610b5b565b8060005b8381101561086c578151610853888261078e565b975061085e83610ba4565b92505060018101905061083f565b5085935050505092915050565b600061088482610b8c565b61088e8185610bf5565b935061089e818560208601610c19565b80840191505092915050565b60006108b582610b81565b6108bf8185610bd3565b93506108cf818560208601610c19565b6108d881610c4c565b840191505092915050565b60006108ee82610b81565b6108f88185610be4565b9350610908818560208601610c19565b61091181610c4c565b840191505092915050565b6000610929600e83610be4565b91507f496e76616c6964204f7074696f6e0000000000000000000000000000000000006000830152602082019050919050565b6000610969601983610be4565b91507f4163636f756e742068617320616c726561647920766f746564000000000000006000830152602082019050919050565b60006109a9601583610be4565b91507f4f7074696f6e20646f6573206e6f7420657869737400000000000000000000006000830152602082019050919050565b6109e581610c00565b82525050565b6109f481610c00565b82525050565b6000610a068284610879565b915081905092915050565b60006020820190508181036000830152610a2b81846107a6565b905092915050565b60006020820190508181036000830152610a4d818461081b565b905092915050565b60006020820190508181036000830152610a6f81846108e3565b905092915050565b60006020820190508181036000830152610a908161091c565b9050919050565b60006020820190508181036000830152610ab08161095c565b9050919050565b60006020820190508181036000830152610ad08161099c565b9050919050565b6000602082019050610aec60008301846109eb565b92915050565b6000604051905081810181811067ffffffffffffffff82111715610b1557600080fd5b8060405250919050565b600067ffffffffffffffff821115610b3657600080fd5b601f19601f8301169050602081019050919050565b6000819050602082019050919050565b6000819050602082019050919050565b600081519050919050565b600081519050919050565b600081519050919050565b600081519050919050565b6000602082019050919050565b6000602082019050919050565b600082825260208201905092915050565b600082825260208201905092915050565b600082825260208201905092915050565b600082825260208201905092915050565b600081905092915050565b6000819050919050565b82818337600083830152505050565b60005b83811015610c37578082015181840152602081019050610c1c565b83811115610c46576000848401525b50505050565b6000601f19601f8301169050919050565b610c6681610c00565b8114610c7157600080fd5b5056fea365627a7a7231582000cc04dca022db6c9b28af473939dcc9931f918819d768072db254758bea96646c6578706572696d656e74616cf564736f6c63430005100040",
  "source": "// SPDX-License-Identifier: MIT\npragma solidity >=0.4.22 <0.9.0;\npragma experimental ABIEncoderV2;\n\ncontract Voter {\n    struct OptionPos{\n        uint pos;\n        bool exists;\n    }\n    \n    uint[] public votes;\n    string[] public options;\n    mapping (address => bool) hasVoted;\n    mapping (string => OptionPos) posOfOption;\n    \n    constructor(string[] memory _options) public {\n        options = _options;        \n        \n        for(uint i = 0; i < options.length; i++)\n        {\n            OptionPos memory optionPos = OptionPos(i, true);\n            string memory optionName = options[i];\n            posOfOption[optionName] = optionPos;\n            votes.push(0);\n        }\n    }\n    \n    function vote(string memory optionName) public {\n        require(!hasVoted[msg.sender], \"Account has already voted\");\n        \n        // new code here\n        OptionPos memory optionPos = posOfOption[optionName];\n        require(optionPos.exists, \"Option does not exist\");\n        \n        votes[optionPos.pos] = votes[optionPos.pos] + 1;\n        hasVoted[msg.sender] = true;\n    }\n    \n    function vote(uint option) public {\n        require(0 <= option && option < options.length, \"Invalid Option\");\n        require(!hasVoted[msg.sender], \"Account has already voted\");\n        \n        votes[option] = votes[option] + 1;\n        hasVoted[msg.sender] = true;\n    }\n    \n    function getOptions() public view returns (string[] memory){\n        return options;\n    }\n    \n    function getVotes() public view returns (uint[] memory){\n        return votes;\n    }\n}",
  "sourcePath": "/home/mkaiser/src/Ethereum/contracts/voting-prototype.sol",
  "compiler": {
    "name": "solc",
    "version": "0.5.16+commit.9c3226ce.Emscripten.clang"
  },
  "schemaVersion": "3.3.3",
  "updatedAt": "2021-01-07T21:19:00.426Z",
  "devdoc": {
    "methods": {}
  },
  "userdoc": {
    "methods": {}
  }
}